:020000040800F2
:10000000A06A00205D02000855650008995C0008A0
:100010002965000871150008F57E00080000000041
:100020000000000000000000000000009D0100082A
:100030004F23000800000000F9010008B56F000818
:1000400077020008770200087702000877020008AC
:10005000770200087702000877020008770200089C
:10006000770200087702000877020008770200088C
:10007000E521000877020008F52100087702000852
:10008000770200087702000877020008770200086C
:10009000E11D0008770200087702000877020008D7
:1000A000770200081571000877020008770200083F
:1000B0002D71000877020008770200087702000817
:1000C000770200087702000877020008770200082C
:1000D00077020008C57E000877020008D57E000878
:1000E000770200087702000877020008770200080C
:1000F00077020008770200087702000877020008FC
:1001000077020008770200087702000877020008EB
:1001100077020008770200087702000877020008DB
:10012000770200080522000815220008770200085F
:1001300077020008770200087702000877020008BB
:10014000551E0008770200087702000877020008B1
:10015000770200082522000835220008E57E000805
:10016000770200087702000877020008770200088B
:1001700077020008770200087702000800000000FC
:100180007702000877020008DFF80CD000F020FCAE
:10019000004800471DBD0008A06A00202C4B1968CC
:1001A0000868B0E8F04F80F30988BFF36F8F4FF015
:1001B000000080F3118870470000000008480068C4
:1001C000006880F308884FF0000080F3148862B65E
:1001D00061B6BFF34F8FBFF36F8F00DF00BF00BF6B
:1001E00008ED00E0DFF80C00016841F470010160E7
:1001F000704700BF88ED00E0EFF30980BFF36F8F19
:10020000134B1A681EF0100F08BF20ED108A20E96A
:10021000F04F106009B44FF0500080F31188BFF325
:100220004F8FBFF36F8F0EF067F94FF0000080F330
:10023000118809BC19680868B0E8F04F1EF0100F6B
:1002400008BFB0EC108A80F30988BFF36F8F704746
:1002500030000020EFF3058070470000064880471B
:1002600006480047FEE7FEE7FEE7FEE7FEE7FEE79B
:10027000FEE7FEE7FEE7FEE79D7000088901000843
:100280002DE9F05F0546002092469B4688460646CB
:10029000814640241BE0284641464746224600F05E
:1002A00090FA53465A46C01A914110D31146184647
:1002B000224600F077FA2D1A67EB01084F462246D6
:1002C0000120002100F06EFA17EB00094E41201EBC
:1002D000A4F10104DFDC484631462A464346BDE826
:1002E000F09F40EA01039B0703D009E008C9121FF1
:1002F00008C0042AFAD203E011F8013B00F8013BE0
:10030000521EF9D27047D2B201E000F8012B491E0B
:10031000FBD270470022F6E710B513460A460446A2
:100320001946FFF7F0FF204610BD2DE9FE4F80462D
:1003300081EA0300C00F0C46009021F0004123F039
:100340000045B8EB0200A94105D24046214690463F
:100350001C460B46024623F00040104347D0270DB1
:10036000C7F30A00C3F30A510290401A01904028D3
:100370006BDAC3F3130040F4801B0098924620B15F
:100380000023D2EB030A63EB0B0B01985946C0F133
:100390004002504600F006FA06460D4650465946C1
:1003A000019A00F01EFA10EB08006141002487EA70
:1003B000115284EAE7731A4340D0009A62B3019A5B
:1003C000012A4FEA075215DC001B61EB02014FF0D6
:1003D000004202EA0752CDE90042001C41F58011BB
:1003E00032462B4600F055FA03B0BDE8F08F404688
:1003F0002146F9E7001B61EB0201001C41F5801367
:1004000000185B412018A2F5001747EB030140EAF2
:10041000D570B6196D4111E06D084FEA360645EA10
:10042000C0754FEA0752001B61EB0201001C41F549
:10043000801149084FEA30000019514132462B46DD
:1004400003B0BDE8F04F00F015BA0098012240005B
:100450000023D0EB020263EBE073009821464FEAE1
:10046000E074B8EB000061EB0401E9E783F00043BE
:100470005BE781F0004158E72DE9FE4F81EA030474
:1004800004F0004421F0004100944FF0000B23F0F1
:10049000004350EA01045ED052EA03045BD0C3F388
:1004A0000A54C1F30A552C44A4F2F3340194A0FB7E
:1004B0000254C1F3130141F48011C3F3130343F455
:1004C000801301FB024400FB034E840A970A44EAAE
:1004D000815447EA8357A4FB076802958D0A05FB00
:1004E00007854FEA932C04FB0C542705029D4FEA25
:1004F000065847EA1637B5EB08056EEB070C870E72
:10050000920E47EA811742EA8312A7FB0201B6EB7B
:100510000B0164EB00042B0D43EA0C335E1844EB33
:100520001C50DA465146E7FB0201C5F313044FEABB
:100530000B3343EA14534FEA0432019C43EA0603A7
:10054000A4F10C040294009CCDE900B400F0A1F9E0
:1005500003B0BDE8F08F00200146F9E72DE9F04D2A
:1005600081EA030404F0004B21F0004514464FF0EB
:10057000000A23F0004150EA050220D054EA0102AB
:100580001DD0C5F30A570246C5F31303C1F3130088
:10059000C1F30A5640F4801543F48013A7EB060814
:1005A000101BD64608F2FD3873EB050002D308F1A4
:1005B000010801E092185B41B8F1000F03DA002056
:1005C0000146BDE8F08D00204FF4801106468446B8
:1005D0000EE0171B73EB050705D3121B63EB050336
:1005E00006434CEA010C49084FEA300092185B417F
:1005F00050EA0107EDD152EA030012D082EA04006A
:1006000083EA0501084305D0101BAB4106D2012245
:10061000002306E000224FF0004302E06FF00102E9
:1006200053101AEB06004CEB085110EB0A0041EB9B
:100630000B01BDE8F04D00F01DB90EB5C10F80EA09
:10064000E0700844CA07002140F233438DE80E00F1
:100650000A460B4600F01DF903B000BD0EB540F28E
:10066000334102910021CDE900110A460B4600F00A
:1006700010F903B000BD70B5C1F30A5201F0004596
:100680000024C1F3130140F2FF3341F480119A4278
:1006900001DA002070BD40F233439A42A2F23342A5
:1006A00003DC524200F08DF800E090402C43F1D082
:1006B000404270BDC1F30A5210B5C1F3130140F2BC
:1006C000FF3341F480119A4201DA002010BD40F25C
:1006D00033439A42A2F2334203DC524200F071F8F3
:1006E00010BD904010BD00F0004230F000400AD034
:1006F000C10D01F56071C0F3160042EA0151C20854
:1007000040071143704700200146704730B5041E72
:1007100071F1000404DB4FF00044404264EB01013E
:10072000141E73F1000405DB1C464FF000435242D7
:1007300063EB04038B4208BF824230BD30B5041E18
:1007400071F1000404DB4FF00044404264EB01010E
:10075000141E73F1000405DB1C464FF000435242A7
:1007600063EB0403994208BF904230BD01F000439F
:1007700030B421F0004150EA010206D00A0DA2F582
:100780006072C1F31301002A02DC30BC0020704704
:10079000440F44EAC104C100E01830BC00EBC25071
:1007A00000F031B8202A04DB203A00FA02F10020E0
:1007B00070479140C2F1200320FA03F3194390409F
:1007C0007047202A04DB203A21FA02F0002170470A
:1007D00021FA02F3D040C2F12002914008431946A9
:1007E0007047202A06DBCB17203A41FA02F043EA91
:1007F000E07306E041FA02F3D040C2F120029140DA
:100800000843194670470029A8BF7047401C49009B
:1008100008BF20F00100704710B4B0FA80FC00FA65
:100820000CF050EA010404BF10BC704749B1CCF190
:10083000200421FA04F411FA0CF118BF012121431C
:100840000843A3EB0C01CB1D4FEA00614FEA1020D7
:1008500042BF002010BC704700EBC3501044002979
:10086000A4BF10BC7047401C490008BF20F0010025
:1008700010BC704710B5141E73F1000408DA401C58
:1008800041F1000192185B411A4301D120F00100AF
:1008900010BD2DE9F04D92469B4611B1B1FA81F29F
:1008A00002E0B0FA80F220329046FFF77BFF044668
:1008B0000F4640EA0A0041EA0B0153465A460843F4
:1008C00013D0114653EA010019D0C8F14002504636
:1008D000FFF777FF05460E46504659464246FFF75A
:1008E00061FF084305D0012004E020463946BDE8F9
:1008F000F08D0020054346EAE0762C4337430A9802
:100900006305E40AA0EB08000022FD0A44EA47540C
:100910000A3002D500200146E9E7010510196941B6
:10092000DDE9084500196941BDE8F04DA2E72DE970
:10093000F04D00231A461B1A8A4103DB00200146B2
:10094000BDE8F08DC1F30A52C1F3130141F48015E3
:100950004FF0000BD10702D100186D41521E002745
:10096000044640F2FF11384601EB620A3E468046DB
:10097000024600204FF48011FFF723FFC219714196
:10098000BB1846EB0100B4EB030C75EB000C04D371
:10099000E41A65EB000517460E46241908F101001C
:1009A0006D4180463428E3DDF91946EB0600091B4A
:1009B000A84103D24FF0FF32134601E00022134654
:1009C0001BEB070046EB0A51BDE8F04DFFF752BFA5
:1009D000064C074D06E0E06840F0010394E807008C
:1009E00098471034AC42F6D3FFF7D2FBB8FB0008AF
:1009F000D8FB000830B58C1810F8012B12F00F034B
:100A000001D110F8013B120906D110F8012B03E0C7
:100A100010F8015B01F8015B5B1EF9D101E001F800
:100A2000013B521EFBD1A142E6D3002030BD0000A5
:100A300010B506220F49122000F094F80D484078B6
:100A4000000200B20B49097808430B4908800948A5
:100A5000C078000200B207498978084306494880F7
:100A600004484079000200B202490979084302496A
:100A7000888010BDEC000020F40000203EB500206E
:100A800000F038F819490870012002F00FFEB62175
:100A90007E2000F09FF8502002F008FE002000F0B9
:100AA00029F812490870012002F000FE002000F031
:100AB00021F80E490870012002F0F8FD00240C4ACC
:100AC00007CA8DE8070000BF0CE06A4602EB44024B
:100AD00051781DF8140000F07DF8012002F0E6FDC9
:100AE000601CC4B2062CF0DB3EBD0000FD000020FF
:100AF000BCF9000838B5044600221021154802F060
:100B0000E3FE44F08000144908704FF47A7001232A
:100B1000124A0090124803F08BFC55200E490870D1
:100B20004FF47A7001230D4A00900D4803F080FCC9
:100B30004FF47A700123094A07490090084803F0EE
:100B400077FC01221021034802F0BEFE0348007822
:100B500038BD000000000240E4000020E500002055
:100B6000EC080020F8B506460C4615460022102178
:100B7000144802F0A9FE46F08000134908704FF4B3
:100B80007A700123114A0090114803F051FC4FF490
:100B90007A7001230D4A0C4900900D4803F048FC7F
:100BA00006E0552000F06EF82070641C681EC5B287
:100BB000002DF6D101221021024802F085FE00200E
:100BC000F8BD000000000240E4000020E500002025
:100BD000EC08002038B505460C46002210211048CC
:100BE00002F072FE0F4805704FF47A7001230E4A2E
:100BF0000C4900900D4803F01BFC0A4804704FF4A8
:100C00007A700123084A07490090084803F010FC55
:100C100001221021024802F057FE002038BD0000DA
:100C200000000240E4000020E5000020EC08002065
:100C300070B505460C4600260DB1022C00D870BDDB
:100C4000A11E06480288284601F0D2FC0646A01ED6
:100C50002E54310A601E295400BFF0E7CA0000205C
:100C600070B505460C4600260DB1022C00D870BDAB
:100C7000611EFF22284601F0D5FC0646601E2E5458
:100C800000BFF4E701B582B04FF47A70012301AAE6
:100C900002A90090024803F0CBFB9DF804000EBDB2
:100CA000EC08002010B501F0ADFBFFF7C1FE06F027
:100CB000FFF910BD70B52DED108B88B004460D46C0
:100CC0001646FE4890ED000A20EE000AB0EE408A7B
:100CD00090ED000AFA48D0ED000A20EE200AF0EE6E
:100CE000408AF64890ED000AF648D0ED000A20EE62
:100CF000200A8DED070AF14890ED000AF248D0ED88
:100D0000000A20EE200A8DED060AED4890ED000A5B
:100D100020EE000A8DED050A90ED000AE948D0EDBD
:100D2000000A20EE200A8DED040AE54890ED000A45
:100D3000E548D0ED000A20EE200A8DED030AE148D7
:100D400090ED000A20EE000A8DED020A90ED000AF7
:100D5000DD48D0ED000A20EE200A8DED010A90ED6D
:100D6000000A20EE000A8DED000AD848B0F9000014
:100D700000EE100AB8EEC00AD54880ED000AD3484C
:100D8000B0F9020000EE100AB8EEC00AD14880EDBA
:100D9000000ACE48B0F90400CF49B1F9001090FB29
:100DA000F1F0CD49098810FB01F000EE100AB8EE11
:100DB000C00ACA4880ED000AC54890ED000AF9EE65
:100DC000040AB4EEE00AF1EE10FA0CDB90ED000A32
:100DD000F1EE040AB4EEE00AF1EE10FA03D89FED4A
:100DE000C00A80ED000ABB4890ED000AF9EE040A43
:100DF000B4EEE00AF1EE10FA0CDB90ED000AF1EE31
:100E0000040AB4EEE00AF1EE10FA03D89FEDB40A3A
:100E100080ED000AB14890ED000AF9EE040AB4EE44
:100E2000E00AF1EE10FA0CDB90ED000AF1EE040A94
:100E3000B4EEE00AF1EE10FA03D89FEDA90A80EDB6
:100E4000000AA848B0F9000000EE100AB8EEC00A87
:100E5000A54880ED000AA348B0F9020000EE100A90
:100E6000B8EEC00AA14880ED000A9E48B0F904001F
:100E700000EE100AB8EEC00A9D4880ED000A9A48BC
:100E8000D0ED000A994890ED000A20EE800A9848BB
:100E9000D0ED000A20EE200AB5EEC00AF1EE10FAFD
:100EA00004D1002008B0BDEC108B70BD884890EDD7
:100EB000000ADFED900A20EE200A80ED000A854846
:100EC000D0ED000A9FED8B0A20EE800A80ED000A2B
:100ED0008248D0ED000A9FED870A20EE800A80ED5F
:100EE000000A814890ED000ADFED830A20EE200A17
:100EF00080ED000A7D4890ED000ADFED7F0A20EECC
:100F0000200A80ED000A7A4890ED000ADFED7A0AA7
:100F100020EE200A80ED000A7348D0ED000A60EE52
:100F2000A00A724890ED001AD0ED001A41EE210A95
:100F30006F4890ED001AD0ED001A41EE210AB0EE94
:100F4000600A0AF02FFB6D4880ED000A6648D0ED7C
:100F5000000A6A4890ED000A20EE800A624880ED9F
:100F6000000A624890ED000A6448D0ED000A20EEC5
:100F7000200A5E4880ED000A5D48D0ED000A5F4817
:100F800090ED000A20EE800A594880ED000A9DEDA0
:100F9000030ADDED070A30EE600AF0EE000A20EEEB
:100FA000200A574880ED000A9DED010A78EE800A7C
:100FB000B0EE000A20EE800A524880ED000AB7EE3B
:100FC000000AF0EE000A10EE880ADDED000AB0EE2D
:100FD000001A01EE200A4C4880ED000A434890EDCB
:100FE000000A4948D0ED000A20EE200A4048D0ED22
:100FF000000A444890ED001A00EEC10A434880ED13
:10100000000A3B4890ED000A3D48D0ED000A20EE72
:10101000200A3548D0ED000A3B4890ED001A00EE5A
:10102000C10A3B4880ED000A2F4890ED000A354880
:10103000D0ED000A20EE200A2C48D0ED000A3048FE
:1010400090ED001A00EEC10A324880ED000A2F48E8
:1010500090ED000AB5EEC00AF1EE10FA6BD02C4804
:1010600090ED000AB5EEC00AF1EE10FA63D02948FF
:1010700090ED000AB5EEC00AF1EE10FA5BD014480C
:1010800090ED000A2448D0ED000A204890ED001AA7
:1010900000EE810A0E4880ED000A0E4890ED000A2D
:1010A0001D48D0ED000A1A4890ED001A00EE810AA2
:1010B000084880ED000A094830E0000040010020A7
:1010C00044010020480100204C010020A8640020B9
:1010D000280100202C0100206C010020300100209C
:1010E00000000000F400002034010020380100203E
:1010F0003C01002058A08B3AE7416B3A0C010020DC
:101100001001002014010020180100201C01002003
:1011100020010020240100200001002090ED000AA1
:10112000E148D0ED000AE14890ED001A00EE810A96
:10113000DF4880ED000ADF4890ED000AB1EE400A7A
:10114000DD48D0ED000A20EE200ADC48D0ED000A90
:10115000DB4890ED001A00EEC10ADA48D0ED000A33
:10116000D34890ED001A00EEC10AD74890ED001A5E
:10117000D648D0ED000A40EE010AD548C0ED000A7D
:10118000D24890ED000ACC48D0ED000A20EE200AAB
:10119000CA48D0ED000AC64890ED001A00EE810A58
:1011A000C848D0ED000AC64890ED001A00EEC10A0A
:1011B000C54890ED001ABF48D0ED000A40EE010A84
:1011C000C448C0ED000AC148D0ED000ABC4890ED0B
:1011D000000A20EE800AB748D0ED000AB44890ED2E
:1011E000001A00EEC10AB748D0ED000AB24890EDEF
:1011F000001A00EE810AB44890ED001AAF48D0ED15
:10120000000A40EE010AB448C0ED000AAF4890ED74
:10121000000AA748D0ED000A20EE200AA548D0ED2C
:10122000000AA74890ED001A00EE810AA348D0ED0D
:10123000000AA14890ED001A00EEC10AA24890ED04
:10124000001AA048D0ED000A40EE010AA348C0ED04
:10125000000A9F48D0ED000A60EEA00A9D4890ED7C
:10126000001AD0ED001A41EE210A9B4890ED001AB9
:10127000D0ED001A41EE210A984890ED001AD0ED09
:10128000001A41EE210AB0EE600A0AF08BF9944888
:1012900080ED000A8E48D0ED000A914890ED000ADA
:1012A00020EE800A894880ED000A8A4890ED000A05
:1012B0008B48D0ED000A20EE200A7E4880ED000A1F
:1012C000854890ED000A8648D0ED000A20EE200AFD
:1012D0007A4880ED000A814890ED000A8048D0ED00
:1012E000000A20EE200A774880ED000A774890ED4A
:1012F000001A21EE011A6F48D0ED001A90ED002A75
:1013000001EE821AF7EE001AB0EE002A52EE011A30
:10131000F0EE610A90ED001AF0EE001A21EE211AAB
:101320006648D0ED001A21EE211A6848D0ED001A67
:10133000B0EE002A61EE821A624890ED002A01EEBA
:10134000821AB0EE410A07F05FFA9FED661ADFEDF0
:10135000660A40EE010A9FED650A20EE800ADFED85
:10136000640A80EE201A86ED001A5248D0ED000A79
:10137000544890ED001A60EE810A544890ED001A2E
:101380004E48D0ED001A41EE610AB8EE001A60EE48
:10139000810AB0EE600A06F03DFFF1EE400A9FEDD3
:1013A000511A9FED510A00EE810ADFED500A20EE3E
:1013B000200ADFED4F0A80EE201A84ED001A434820
:1013C00090ED000A20EE000A3A48D0ED000A90EDB8
:1013D000001A00EEC10A3948D0ED000A90ED001A5B
:1013E00000EEC10A3748D0ED000A90ED001A00EE79
:1013F000810A10EE101A0846FFF775F941EC1E0B32
:101400002E4890ED000AF0EE000A20EE200A2D484A
:10141000D0ED000A20EE200A2C48D0ED000AB0EEF4
:10142000001A60EE810A234890ED001A00EE810A4E
:1014300010EE101A0846FFF756F941EC1F0BB0EEFC
:101440004E1AF0EE6E1AB0EE4F0AF0EE6F0A07F089
:10145000E3F8B0EE40DAF0EE60DA9FED260B53ECE5
:10146000102B51EC1D0BFFF707F841EC1C0B9FED07
:10147000230B53EC102BFEF758FF41EC1B0B9FED99
:10148000210B53EC102BFEF7F7FF41EC1A0B9FEDED
:101490001F0B53EC102BFFF761F841EC190BFFF712
:1014A00065F928600020FDE40001002024010020EF
:1014B00030010020440100202801002048010020C4
:1014C0002C0100204C0100200801002040010020D8
:1014D0005C01002060010020640100206801002000
:1014E0000C01002033336542000034430000004605
:1014F0000000B4430000006066A64C4000000000FD
:1015000000806640000000000000C04000000000B5
:101510000080764010B5FFF7B1FA0A2002F0C6F855
:1015200000F0A0FF0A2002F0C1F800F015FF10BD86
:1015300010B50B48D0ED0F0AB0EE600A0948DFED98
:101540000A0A0121D0F8A4209047064890ED1F0A0E
:10155000BCEEC00A10EE100A0449086010BD00007D
:10156000B46400201C63002000001E42344401408B
:1015700000BFFEE710B52DED048BFE48C068FD49A5
:101580000969884205D1FB48007D401CF94908756E
:1015900002E00020F7490875F648007DFA2802DDD0
:1015A0009FEDF50B15E0F349087DFFF757F841EC87
:1015B000190B9FEDF30B53EC102BFFF7A7F802D29A
:1015C0009FEDEF0B05E0EB49087DFFF747F841EC95
:1015D000100BB0EE408AF0EE608A51EC180BFFF76A
:1015E00069F8E449087508460069C8600846007D46
:1015F000C82802DD0020487502E00120DD49487559
:10160000DC488069DB490969884207D1D94890F8EC
:101610002000401CD74981F8200003E00020D54974
:1016200081F82000D34890F82000FA2802DD9FEDD1
:10163000D20B17E0CF4991F82000FFF70FF841ECEB
:10164000190B9FEDCF0B53EC102BFFF75FF802D275
:101650009FEDCB0B06E0C74991F82000FEF7FEFF97
:1016600041EC100BB0EE408AF0EE608A51EC180BA2
:10167000FFF720F8BF4981F820000846C06988615B
:10168000084690F82000C82803DD002081F82100DA
:1016900003E00120B74981F82100B648406AB54906
:1016A000896A884207D1B34890F82C00401CB149A0
:1016B00081F82C0003E00020AE4981F82C00AD48F1
:1016C00090F82C00FA2802DD9FEDAB0B17E0A9493A
:1016D00091F82C00FEF7C2FF41EC190B9FEDA80B0F
:1016E00053EC102BFFF712F802D29FEDA50B06E08A
:1016F000A04991F82C00FEF7B1FF41EC100BB0EEC1
:10170000408AF0EE608A51EC180BFEF7D3FF99493E
:1017100081F82C000846406A8862084690F82C0040
:10172000C82803DD002081F82D0003E00120914945
:1017300081F82D00002455E08E48303050F82410F8
:10174000103050F82400814208D18A485030005DA2
:10175000401CC1B287485030015503E00021854844
:101760005030015583485030005DFA2802DD9FED6E
:10177000820B17E07F495031085DFEF76FFF41ECA7
:10178000190B9FED7F0B53EC102BFEF7BFFF02D21E
:101790009FED7B0B06E077495031085DFEF75EFF59
:1017A00041EC100BB0EE408AF0EE608A51EC180B61
:1017B000FEF780FFC1B26F4850300155203850F815
:1017C0002410103040F824101030005DC82804DDCB
:1017D000002168485C30015503E0012165485C3018
:1017E0000155641C042CA7DB6248006E6149496EF8
:1017F000884207D15F4890F86800401C5D4981F835
:10180000680003E000205B4981F86800594890F8BF
:101810006800FA2802DD9FED580B17E0554991F852
:101820006800FEF71BFF41EC190B9FED550B53ECC5
:10183000102BFEF76BFF02D29FED510B06E04D49D6
:1018400091F86800FEF70AFF41EC100BB0EE408AF9
:10185000F0EE608A51EC180BFEF72CFF454981F839
:1018600068000846006E4866084690F86800C82878
:1018700003DD002081F86B0003E001203D4981F881
:101880006B003C48806F3B49C96F884207D139489B
:1018900090F88000401C374981F8800003E0002068
:1018A000344981F88000334890F88000FA2802DD3E
:1018B0009FED310B17E02F4991F88000FEF7CEFE27
:1018C00041EC190B9FED2E0B53EC102BFEF71EFF76
:1018D00002D29FED2B0B06E0264991F88000FEF71F
:1018E000BDFE41EC100BB0EE408AF0EE608A51EC88
:1018F000180BFEF7DFFE1F4981F880000846806F55
:10190000C867084690F88000C82803DD002081F8E9
:10191000830003E00120174981F883001548D0F8BF
:1019200084001449D1F88810884207D1114890F8F2
:101930008C00401C0F4981F88C0003E000200D4909
:1019400081F88C000B4890F88C00FA2802DD9FED9E
:101950000A0B23E0074991F88C00FEF77FFE41EC6B
:10196000190B9FED070B53EC102BFEF7CFFE0ED299
:101970000AE00000E46500200000000000406F4025
:1019800000000000000000001FED030B06E0F1491D
:1019900091F88C00FEF762FE41EC100BB0EE408A2D
:1019A000F0EE608A51EC180BFEF784FEE94981F8ED
:1019B0008C000846D0F88400C1F88800084690F8EA
:1019C0008C00C82803DD002081F88F0003E001208F
:1019D000E04981F88F00002455E0DE48903050F84F
:1019E0002410083050F82400814208D1D948A03092
:1019F000005D401CC1B2D748A030015503E0002172
:101A0000D448A0300155D348A030005DFA2802DD4B
:101A10001FED270B17E0CF49A031085DFEF71EFE32
:101A200041EC190B1FED2A0B53EC102BFEF76EFE49
:101A300002D21FED2D0B06E0C649A031085DFEF76E
:101A40000DFE41EC100BB0EE408AF0EE608A51ECD6
:101A5000180BFEF72FFEC1B2BE48A030015510385A
:101A600050F82410083040F824100830005DC828D1
:101A700004DD0021B748A630015503E00121B54837
:101A8000A6300155641C022CA7DBB248C06EB149D8
:101A9000096F884207D1AF4890F87400401CAD49E7
:101AA00081F8740003E00020AA4981F87400A94875
:101AB00090F87400FA2802DD1FED510B17E0A549DC
:101AC00091F87400FEF7CAFD41EC190B1FED540BA1
:101AD00053EC102BFEF71AFE02D21FED570B06E057
:101AE0009C4991F87400FEF7B9FD41EC100BB0EE83
:101AF000408AF0EE608A51EC180BFEF7DBFD954949
:101B000081F874000846C06E0867084690F87400B3
:101B1000F02803DD002081F8750003E001208D49E5
:101B200081F875008B48407D20B90220894981F8F1
:101B3000A80047E0874890F85C00F8B1854890F825
:101B40005D00D8B1834890F85E00B8B1814890F844
:101B50005F0098B17F4890F86B0078B17D4890F8AD
:101B6000830058B17B4890F88F0038B1794890F8DD
:101B7000A60018B1774890F8A70020B9042075494D
:101B800081F8A8001EE0734890F82D0020B90520C8
:101B9000704981F8A80015E06E4890F8750020B9EA
:101BA00003206C4981F8A8000CE06A4890F82100F5
:101BB00020B90120674981F8A80003E000206549A9
:101BC00081F8A800634890F8A80000287ED001F0B2
:101BD00081FE60494968401A642808D95D48008937
:101BE000401C5C49088101F075FE5A49486059481B
:101BF00090F8A80006286AD2DFE800F09D03142BB5
:101C00004971544800890E280BDB50205249086066
:101C1000504800890F2804DB00204E4908814E49B6
:101C200008608CE04B4800890A2811DB50204A49A3
:101C30000860484800890B2801D100200860454809
:101C400000890D2804DB00204349086041490881D0
:101C500075E0404800890A2818DB50203E4908609A
:101C60003C4800890B2801D10020086039480089D0
:101C70000D2802D1002038490860364800890F2815
:101C800004DB0020344908603249088157E03148BC
:101C900000890A2822DB50202F4908602D4800893E
:101CA0000B2801D1002008602A4800890D2802D1A4
:101CB000002029490860274800890F2802D1002008
:101CC0002549086023480089112801E038E032E006
:101CD00004DB0020204908601E4908812FE01D48D0
:101CE00000890A2826DB50201B4908601948008912
:101CF0000B2801D100200860164800890D2802D168
:101D0000002015490860134800890F2802D10020DF
:101D1000114908600F480089112802D100200E499E
:101D200008600C480089132804DB00200A49086079
:101D30000849088103E000200749086000BF06E069
:101D4000044890F8A80010B9002003490860BDECD1
:101D5000048B10BDE46500203C08004070B50646C9
:101D60000C46154605480660204601F09FFC002001
:101D700002490860284601F099FC70BD3C0800400B
:101D800010B58AB004460020059006900120079007
:101D900047F6FE700090002001900290039004909E
:101DA0000E2009900120089069460C4800F00CFDB7
:101DB00008B100F0CDFA094801F0C5F908B100F00A
:101DC000C7FA0221054800F03FFC08B100F0C0FA54
:101DD0000221024800F038FC0AB010BD9C08002027
:101DE00010B5024800F040FE10BD00009C08002025
:101DF00010B58AB004460E20059000200690012000
:101E000007904FF6FF700090401001900020029064
:101E1000039004900E2009900120089069460C4818
:101E200000F0D2FC08B100F093FA094801F08BF9F8
:101E300008B100F08DFA0221054800F005FC08B158
:101E400000F086FA0221024800F0FEFB0AB010BD45
:101E5000C408002010B5024800F006FE10BD0000C6
:101E6000C408002010B56448007D00F0010048B9A6
:101E70006148007D00F0020020B99FED600B6148D1
:101E800080ED020B5C48007D00F0040048B95A4820
:101E9000007D00F0080020B99FED580B5A4880EDF6
:101EA000020B5548007D00F0010028B19FED570A54
:101EB000574880ED020A04E09FED560A544880ED31
:101EC000020A4D48007D00F0020028B19FED520A41
:101ED0004F4880ED030A04E09FED4E0A4C4880ED28
:101EE000030A4548007D00F0080028B19FED470A2D
:101EF000474880ED010A04E09FED460A444880ED22
:101F0000010A3D48007D00F0040028B19FED420A1F
:101F10003F4880ED000A04E09FED3E0A3C4880ED1A
:101F2000000A3B4890ED000AD0ED010A30EE200A8D
:101F300010EE101A0846FEF7D6FB334AC2E902013A
:101F4000334890ED020AD0ED030A30EE200A10EE7D
:101F5000101A0846FEF7C7FB2A4AC2E902019FEDA4
:101F60002F1ADFED2E0AB1EE080A2749083126485C
:101F700004F0FEFE9FED291ADFED280AB1EE080AF3
:101F8000204908311F4804F0F3FE1E4890ED021B63
:101F9000B0EE410AF0EE610A9FED181B53EC112BD5
:101FA00051EC100BFEF7B2FB25D1174890ED021B48
:101FB000B0EE410AF0EE610A9FED101B53EC112BBD
:101FC00051EC100BFEF7A2FB15D19FED121ADFEDBD
:101FD000110A9FED100A0C4908310B4804F0C8FEA5
:101FE0009FED0C1ADFED0B0A9FED0A0A0549083137
:101FF000044804F0BDFE10BDA65100200000000002
:1020000000000000B0530020A05300200000254431
:102010002064002000000000000025C43333B33EDC
:1020200010B5344800882D2820DB32480088372836
:102030001CDC3148C07848B930480AF025FC012042
:102040002D49C87000212C4801714171DFED2C2A07
:102050009FED2B2AF1EE061A9FED291ADFED280AD3
:102060009FED270A25480AF001FC41E0214800883D
:102070003C281DDB2048007950B920480AF004FCB8
:1020800000201D49C87001211B48017100214171C8
:10209000DFED1B2A9FED1A2AF1EE081A9FED181AA0
:1020A000DFED170A9FED160A14480AF0DFFB1FE068
:1020B0001448807CE0B11048407950B90F480AF0CC
:1020C000E3FB00200C49C87000210B48017101217D
:1020D0004171DFED0B2A9FED0A2AF1EE0A1A9FEDFE
:1020E000081ADFED070A9FED060A04480AF0BEFB56
:1020F00010BD000098010020DC6300209C5E0020E1
:1021000000000000086500200A784B7842EA0322AC
:10211000C2F30A0202800288A2F5806212B2028033
:102120004A78D2108B7842EA4312C2F30A02428004
:102130004288A2F5806212B242808A789211CB78EE
:1021400042EA83020B7942EA8322C2F30A028280C6
:102150008288A2F5806212B282800A7952104B798D
:1021600042EAC312C2F30A02C280C288A2F58062A8
:1021700012B2C2804A791211920882724A79C2F36D
:102180000112C2728A79CB7942EA032212B28281A9
:102190000A7A4B7A42EA032213B2C3818A7ACB7A53
:1021A00042EA032213B203820B7B83744B7BC3741A
:1021B0008A7BCB7B42EA032282820A7C4B7C42EA06
:1021C0000322C2F30A0202810289A2F5806212B2DE
:1021D0000281034AD268521C014BDA60704700004A
:1021E000E465002010B5024801F04EF810BD000073
:1021F000F00B002010B5024801F046F810BD0000B9
:10220000500C002010B5024801F03EF810BD00004F
:10221000B00C002010B5024801F036F810BD0000E7
:10222000300B002010B5024801F02EF810BD000060
:10223000100D002010B5024801F026F810BD000076
:10224000900B00200146087810381823B0FBF3F2F9
:102250000848805CC865032A05D908686FF309003F
:10226000001D886503E008686FF309008865886DC4
:10227000704700008CF60008014600208A6A8B69CE
:10228000CBB932B1012A0DD0022A03D0032A10D1D2
:102290000EE000BFCB6A03F08073B3F1807F00D102
:1022A000012007E0CB6AB3F1C07F00D1012001E03B
:1022B00000E000BF34E08B69B3F5005F1AD132B1A2
:1022C000012A07D0022A03D0032A11D10AE000BF55
:1022D00001200EE0CB6A03F08073B3F1807F00D160
:1022E000012006E0CB6AB3F1C07F00D1012000E0FD
:1022F00000BF15E032B1012A05D0022A04D0032A1A
:102300000CD103E000BF00BF012008E0CB6A03F05E
:102310008073B3F1807F00D1012000E000BF00BFD7
:10232000704730B50468246824F4802405682C6064
:10233000046863608468402C04D10468A260046867
:10234000E16003E00468A1600468E26030BD7047AA
:1023500072B600BFFEE700002DE9F04100202749DA
:10236000C880088148810025002400260027804677
:1023700000BF30E006222249022000F0DDF82048AC
:102380004078000200B21E49097808431B49C88002
:102390001B48C078000200B21949897808431749E0
:1023A000088117484079000200B2154909790843AD
:1023B00012494881B5F57A7F0CDD0846B0F9060070
:1023C00006440846B0F9080007440846B0F90A0078
:1023D0008044641C6D1C42F210708542CADB96FB7F
:1023E000F4F000B20549C88097FBF4F000B2088110
:1023F00098FBF4F000B24881BDE8F081A8640020A9
:10240000E600002010B506221449022000F094F8DE
:10241000124840781149097841EA00201049C988DA
:10242000401A00B20E4908800C48C0780B498978E0
:1024300041EA00200A490989401A00B20849488047
:10244000064840790549097941EA0020044949894B
:10245000401A00B20249888010BD0000E60000204A
:10246000A86400203EB5002000F038F81949087033
:10247000012001F01BF9B621142000F08BF8502048
:1024800001F014F9002000F029F812490870012029
:1024900001F00CF9002000F021F80E49087001202D
:1024A00001F004F900240C4A07CA8DE8070000BFB8
:1024B0000CE06A4602EB440251781DF8140000F06B
:1024C00069F8012001F0F2F8601CC4B2062CF0DBC0
:1024D0003EBD0000FC000020B0F9000838B50446FD
:1024E00000220121104801F0EFF944F080000F496B
:1024F00008704FF47A7001230D4A00900D4801F0E6
:1025000097FF5520094908704FF47A700123084A53
:102510000090084801F08CFF01221146024801F0AA
:10252000D3F90348007838BD00040240E4000020DD
:10253000E5000020EC080020F8B506460C461546DC
:10254000002201210F4801F0BFF946F080000E493A
:1025500008704FF47A7001230C4A00900C4801F087
:1025600067FF06E05520FEF78DFB2070641C681E97
:10257000C5B2002DF6D101221146024801F0A4F99E
:102580000020F8BD00040240E4000020E500002027
:10259000EC08002038B505460C4600220121104801
:1025A00001F092F90F4805704FF47A7001230E4A3A
:1025B0000C4900900D4801F03BFF0A4804704FF4AD
:1025C0007A700123084A07490090084801F030FF5B
:1025D00001221146024801F077F9002038BD0000C1
:1025E00000040240E4000020E5000020EC08002088
:1025F00030B5034613B94FF6FF7030BD09E013F84C
:10260000014B82EA0400C0B2054D35F8100080EAA3
:102610002222081EA1F10101F1D11046EDE70000D0
:10262000AEF7000830B5034605E013F8010B80EA69
:1026300002040448025D081EA1F10101F5D1104613
:1026400030BD0000ADF6000810B5024692F820300B
:10265000012B01D0022B06D1106840690843146891
:102660006061002010BD506A40F48020506201205B
:10267000F8E7F0B504460D461E4694F82070206831
:102680008368A86800B900E000BF012F01D0022FC5
:102690007CD103F0806030B903F0006018B903F01A
:1026A0008050002873D0C3F30161022905D9606A04
:1026B00040F4000060620120F0BD012088403060DD
:1026C000A86860B9B5F800C0E86840EA4C5C2068CA
:1026D00000F5C07000EB0110C0F800C00FE0D5E9B4
:1026E00001C040EACC00D5F80CC040EA0C00D4F898
:1026F00000C00CF5C07C0CEB011CCCF80000D5F838
:1027000010C0206800F5C07000EB0110C0F804C0D4
:10271000287D01280ED1206800F5C07000EB011063
:10272000406840F4807C206800F5C07000EB011028
:10273000C0F804C0D079000692F806C040EA0C4008
:1027400092F805C040EA0C2C10794CEA000C206885
:1027500000F5C07000EB0110C0F80CC0D078000686
:1027600092F802C040EA0C4092F801C040EA0C2006
:1027700092F800C040EA0C00D4F800C00CF5C07C10
:102780000CEB011CCCF80800206801E016E00FE01B
:1027900000F5C07000EB0110006840F0010C2068EB
:1027A00000F5C07000EB0110C0F800C0002083E706
:1027B000606A40F40010606201207DE7606A40F4C6
:1027C00080206062012077E7F0B504460A46216860
:1027D00094F82050012D01D0022D7ED1424901F5FF
:1027E0000071086840F001000860086820F47C501F
:1027F00008600868566A40EA06200860107D00F00C
:102800001F06012000FA06F3C8699843C861A1F5C4
:102810000071D069C8B9D1F80C029843C1F80C0214
:10282000908880B2968940EA064601F51070576993
:1028300040F83760108880B2168940EA064601F5F4
:102840001070576900EBC7004660D069012819D1A4
:10285000D1F80C021843C1F80C02908880B2168897
:1028600040EA064601F51070576940F837609089D4
:1028700080B2168940EA064601F51070576900EBF0
:10288000C7004660906928B9D1F804029843C1F89E
:10289000040204E0D1F804021843C1F804021069EC
:1028A00028B9D1F814029843C1F8140204E0D1F811
:1028B00014021843C1F81402106A012804D1D1F897
:1028C0001C021843C1F81C02D1F8000220F00100DC
:1028D000C1F800020020F0BDFFE7606A40F48020EC
:1028E00060620120F7E7000000640040704770B5A7
:1028F000044694F82050012D01D0022D7DD151B90C
:102900002068C06800F0030080B9606A40F40010DD
:102910006062012070BD2068006900F0030028B9E2
:10292000606A40F4001060620120F3E7206800F55F
:10293000D87000EB0110006800F00400906090680F
:1029400040B9206800F5D87000EB01100068400D18
:10295000106007E0206800F5D87000EB01100068F7
:10296000C0085060206800F5D87000EB01100068C6
:1029700000F00200D060206800F5D87000EB011074
:10298000406800F00F001061206800F5D87000EB7F
:102990000110406800F47F40000A9061206800F553
:1029A000D87000EB01104068000C5061206800F501
:1029B000D87000EB011080681870206800F5D8709E
:1029C00000EB0110806800F47F40000A5870206816
:1029D00000F5D87000EB0110806800F47F00000C57
:1029E0009870206800F5D87000EB01108068000E28
:1029F000D870206800F5D87000E02FE000EB0110DF
:102A0000C0681871206800F5D87000EB0110C0682C
:102A100000F47F40000A5871206800F5D87000EB80
:102A20000110C06800F47F00000C9871206800F568
:102A3000D87000EB0110C068000ED87131B9206861
:102A4000C06840F020002668F06005E0206800695A
:102A500040F020002668306100205BE7606A40F4A7
:102A600080206062012055E72DE9F05F04460025D3
:102A7000206846692068D0F804902068876820683C
:102A8000D0F80CA02068D0F810B02068D0F81880DA
:102A900006F00100002855D007F00100C0B1012068
:102AA0002168886007F0020018B1204600F07BFB27
:102AB0000EE007F0040010B145F4006508E007F0EF
:102AC000080010B145F4805502E0204600F06AFB92
:102AD00007F48070C8B14FF480702168886007F4F3
:102AE000007018B1204600F060FB0EE007F4806033
:102AF00010B145F4005508E007F4006010B145F44A
:102B0000804502E0204600F04FFB07F48030C8B15A
:102B10004FF480302168886007F4003018B12046F7
:102B200000F045FB0EE007F4802010B145F40045AD
:102B300008E007F4002010B145F4803502E020469B
:102B400000F034FB06F0080038B10AF0100020B1A4
:102B500045F4007510202168C86006F0040040B1FB
:102B60000AF0080028B108202168C860204600F05B
:102B70000DFA06F0020038B12068C06800F00300CA
:102B800010B1204600F004FA06F0400038B10BF016
:102B9000100020B145F4806510202168086106F01E
:102BA000200040B10BF0080028B10820216808611E
:102BB000204600F0C5FA06F0100038B12068006920
:102BC00000F0030010B1204600F0BBFA06F400301C
:102BD00040B109F0100028B110202168486020465B
:102BE00000F0B0FA06F4803040B109F0080028B1D6
:102BF000082021684860204600F0DAFA06F4004018
:102C000088B309F0040078B306F4807020B108F0AE
:102C1000010008B145F0010506F4007020B108F08C
:102C2000020008B145F0020506F4806020B108F00A
:102C3000040008B145F0040506F40060A0B108F0F6
:102C4000700088B108F07000402817D006DC10280A
:102C50000BD020280CD0302819D10CE0502810D0EF
:102C6000602814D110E01DE019E045F008050FE0E0
:102C700045F010050CE045F0200509E045F0400561
:102C800006E045F0800503E045F4807500E000BFF4
:102C900000BF2068806920F07000216888610420EE
:102CA000216848602DB1606A284360622046FFF7C2
:102CB0001DFEBDE8F09F70B504460CB9012070BD43
:102CC00094F8200010B9204600F0B0F820680068A1
:102CD00040F001002168086000F0FCFD05460DE0B1
:102CE00000F0F8FD401B0A2808D9606A40F4003063
:102CF0006062052084F820000120E0E72068406839
:102D000000F001000028EBD02068006820F00200ED
:102D10002168086000F0DEFD05460DE000F0DAFDF8
:102D2000401B0A2808D9606A40F400306062052020
:102D300084F820000120C2E72068406800F002000B
:102D40000028EBD1207E012806D12068006840F0E1
:102D500080002168086005E02068006820F080009D
:102D600021680860607E012806D12068006840F074
:102D700040002168086005E02068006820F04000FD
:102D800021680860A07E012806D12068006840F014
:102D900020002168086005E02068006820F020001D
:102DA00021680860E07E012806D12068006820F0D4
:102DB00010002168086005E02068006840F01000FD
:102DC00021680860207F012806D12068006840F053
:102DD00008002168086005E02068006820F008000D
:102DE00021680860607F012806D12068006840F0F3
:102DF00004002168086005E02068006820F00400F5
:102E000021680860D4E90201084321690843616927
:102E100008436168491E08432168C8610020606258
:102E2000012084F82000002049E7000010B586B09A
:102E30000446142101A8FDF76DFA4E492068884226
:102E400041D14D480068401C4B4908600846006865
:102E500001280FD100BF002000904848006840F0D2
:102E60000070464908600846006800F00070009055
:102E700000BF00BF00BF002000904048103800682D
:102E800040F008003D49103908600846006800F02D
:102E90000800009000BF00BF0320019002200290B4
:102EA00000200390032004900920059001A93448D4
:102EB00000F010FC00220521142000F0CFFD1420AA
:102EC00000F0BCFD54E02F492068884250D100BF7B
:102ED000002000902948006840F080602749086081
:102EE0000846006800F08060009000BF00BF2248E4
:102EF0000068401C204908600846006801280FD17E
:102F000000BF002000901D48006840F000701B4981
:102F100008600846006800F00070009000BF00BF25
:102F200000BF0020009015481038006840F00200F3
:102F30001249103908600846006800F0020000904D
:102F400000BF00BF6020019002200290002003908B
:102F5000032004900920059001A90B4800F0BAFB5A
:102F600000220521402000F079FD402000F066FDA0
:102F700006B010BD006400401C0000204038024034
:102F8000000C02400068004000040240704700004E
:102F900010B504465C4B5D4A00215D48FFF7A7FC75
:102FA00000285ED15B49206888425AD157480068A2
:102FB000B0F5017F31D007DCA0F2012050B101282B
:102FC00013D002284CD11CE0A0F2052088B3FC28C5
:102FD00046D13AE04C4A4E494F4807F0F1FE4F487F
:102FE000006B401C4D4908633AE0474A48494A484B
:102FF000243007F0E5FE4948406B401C47494863D0
:103000002EE0414A42494448483007F0D9FE43483F
:10301000806B401C4149886322E03B4A3C493E4862
:103020006C3007F0CDFE3D48C06B401C3B49C86387
:1030300016E0FFE7344A3649394807F0C1FE374801
:10304000006E401C354908660AE02F4A3049354871
:1030500007F0F0FE3148C06E401C3049C86600BF22
:1030600000BF294B294A00212F48FFF740FCB8BB7D
:103070002E492068884241D124480068A0F20520EA
:1030800078B3012804D002280FD0032835D11AE0E4
:103090001D4A2549264807F093FE2048D0F89000A5
:1030A000401C1E49C1F8900027E0174A1E492048DD
:1030B000243007F085FE1948D0F89400401C1749C9
:1030C000C1F8940019E0104A17491A4807F078FE31
:1030D0001248D0F88400401C1049C1F884000CE06C
:1030E0000CE0FFE7084A1049134807F069FE0B4857
:1030F000806F401C0949886700BF00BF0F48006807
:10310000401C0E49086010BDAC000020D04B0020D0
:103110009C08002000640040044C0020E46500206E
:10312000944C0020BC000020C4080020006800402F
:10313000004D0020DC4C0020B84C0020C0000020D6
:1031400070477047704770B5044694F82000012816
:1031500022D1022084F820002068006820F00100BD
:103160002168086000F0B6FB05460DE000F0B2FBF8
:10317000401B0A2808D9606A40F4003060620520CC
:1031800084F82000012070BD2068406800F0010034
:103190000028EBD16062F6E7606A40F400206062CC
:1031A0000120F0E7704770477047704770477047DD
:1031B000704770B50446A56D00F08CFB064694F888
:1031C0003500022808D08020606500BF002084F808
:1031D000340000BF012070BD2068006820F0160098
:1031E000216808602068406920F0800021684861FB
:1031F000206C08B9A06C28B12068006820F0080095
:10320000216808602068006820F0010021680860DB
:1032100010E000F05FFB801B05280BD920206065C3
:10322000032084F8350000BF002084F8340000BF7C
:103230000320D0E72068006800F001000028E8D1F2
:1032400094F85C103F208840A860012084F8350085
:1032500000BF002084F8340000BF00BFBBE7014678
:1032600091F83500022803D080204865012070477E
:10327000052081F835000868006820F001000A6820
:1032800010600020F3E70000F8B50446002000902D
:103290008C4800684FF41651B0FBF1F7A56D2E680D
:1032A00094F85C1008208840304098B1206800688D
:1032B00000F0040070B12068006820F0040021686C
:1032C000086094F85C1008208840A860606D40F0A9
:1032D0000100606594F85C1001208840304068B1BE
:1032E0002068406900F0800040B194F85C10012033
:1032F0008840A860606D40F00200606594F85C1042
:1033000004208840304068B12068006800F0020066
:1033100040B194F85C1004208840A860606D40F0D3
:103320000400606594F85C1010208840304078B349
:103330002068006800F0080050B394F85C1010207A
:103340008840A8602068006800F4802080B1206870
:10335000006800F4002028B9206CC8B12046216C18
:10336000884715E0A06C98B12046A16C88470FE013
:103370002068006800F4807028B92068006820F098
:10338000080021680860206C10B12046216C884735
:1033900094F85C10202088403040002865D02068D8
:1033A000006800F0100000285FD094F85C10202026
:1033B0008840A86094F83500052828D12068006866
:1033C00020F01600216808602068406920F0800025
:1033D00021684861206C08B9A06C28B12068006899
:1033E00020F008002168086094F85C103F208840B5
:1033F000A860012084F8350000BF002084F8340064
:1034000000BF206D10B12046216D8847F8BD2068AF
:10341000006800F4802080B12068006800F400207B
:1034200028B9606C10B12046616C88471DE0E06BE4
:10343000D8B12046E16B884717E02068006800F4A7
:10344000807068B92068006820F01000216808606A
:10345000012084F8350000BF002084F8340000BF4C
:10346000E06B10B12046E16B8847606D38B3606D4A
:1034700000F00100F0B1052084F8350020680068F4
:1034800020F001002168086000BF0098401C0090F7
:10349000B84200D905E02068006800F0010000286B
:1034A000F3D100BF012084F8350000BF002084F86C
:1034B000340000BFE06C10B12046E16C884700BFCB
:1034C000A4E700002C0000202DE9F041044600256F
:1034D00000F000FA074614B90120BDE8F081606AE7
:1034E00000B100BF022084F8350000BF002084F83E
:1034F000340000BF2068006820F0010021680860E7
:103500000AE000F0E7F9C01B052805D92020606516
:10351000032084F83500E0E72068006800F001002F
:103520000028EED12068056821480540D4E9010152
:103530000843E16808432169084361690843A169B8
:103540000843E1690843216A08430543606A042887
:1035500003D1D4E90B0108430543206805602068C6
:10356000456925F00705606A0543606A04280DD1A6
:10357000A06A0543E06A48B12046FEF77DFE28B107
:1035800040206065012084F83500A6E72068456189
:103590002046FEF757FE064694F85C103F20884010
:1035A000B06000206065012084F83500002094E7B9
:1035B0003F8010F02DE9F04104460D4616461F46A7
:1035C0004FF0000800BF94F83400012802D1022017
:1035D000BDE8F081012084F8340000BF94F8350084
:1035E000012811D1022084F83500002060653B4697
:1035F000324629462046FEF794FE2068006840F0D7
:1036000001002168086006E000BF002084F8340053
:1036100000BF4FF002084046DAE72DE9F0470446C4
:103620000D4616461F464FF00008D4F8589000BFCC
:1036300094F83400012802D10220BDE8F08701206F
:1036400084F8340000BF94F83500012825D1022009
:1036500084F83500002060653B4632462946204606
:10366000FEF75FFE94F85C103F208840C9F8080020
:103670002068006840F0160021680860206C28B1BE
:103680002068006840F00800216808602068006831
:1036900040F001002168086006E000BF002084F8C7
:1036A000340000BF4FF002084046C6E770B504463C
:1036B00000F010F906462546681C10B10448007851
:1036C000054400BF00F006F9801BA842FAD370BD84
:1036D00028000020F8B502460B46002500240020F3
:1036E0000021D6E0012606FA01F51E6806EA050467
:1036F000AC4274D11E7906F00306012E04D01E7967
:1037000006F00306022E13D190684F000326BE4038
:10371000B0434F00DE68BE403043906050680126E1
:103720008E40B0431E79C6F300168E403043506081
:103730001E7906F00306032E09D0D0684F00032639
:10374000BE40B0434F009E68BE403043D0601E79FB
:1037500006F00306022E13D1CF0802F1200656F818
:1037600027004E07F70E0F26BE40B0434F07FF0E4F
:103770001E69BE403043CF0802F1200646F82700FC
:1037800010684F000326BE40B0431E7906F00306C2
:103790004F00BE40304310605E6806F44036002E95
:1037A00076D000BF002600963C4E366846F4804630
:1037B0003A4F3E603E46366806F48046009600BFAB
:1037C00000BF374E8F0856F827008E07370F0F2699
:1037D000BE40B043334EB24202D1002624E057E04F
:1037E000314EB24201D101261EE0304EB24201D12B
:1037F000022619E02E4EB24201D1032614E02D4ECE
:10380000B24201D104260FE02B4EB24201D105266F
:103810000AE02A4EB24201D1062605E0284EB24205
:1038200001D1072600E008268F073F0FBE40304336
:103830001B4E8F0846F82700224E3068A0435E6872
:1038400006F4801606B120431E4E3060361D3068E7
:10385000A0435E6806F4001606B12043194E361DDB
:103860003060184E361F3068A0435E6806F400369C
:1038700006B12043134E361F3060361F3068A04318
:103880005E6806F4803606B120430E4E083E306076
:10389000491C1029FFF426AFF8BD0000443802404F
:1038A00008380140000002400004024000080240C5
:1038B000000C0240001002400014024000180240B8
:1038C000001C0240083C01400AB1816101E00B0488
:1038D00083617047014800687047000020000020A5
:1038E00003480068034909780844014908607047A3
:1038F000200000202800002010B50D48006840F48A
:1039000000700B4908600846006840F48060086059
:103910000846006840F480700860032000F0DCF87E
:103920000F2000F007F800F05FF8002010BD000045
:10393000003C02402DE9F04188B004460027B8461B
:1039400000BF002001902448006840F00100224997
:1039500008600846006800F00100019000BF00BF49
:1039600002A903A800F0B0F9069F1FB900F0D4F92E
:10397000054602E000F0D0F945001848B5FBF0F02C
:10398000A0F101084FF080401549086040F2E7318E
:103990001348C160C0F80480002101618160816129
:1039A00000F0F2FE064696B90D4800F093FF064679
:1039B0006EB91C2000F042F8102C07D200222146DC
:1039C0001C2000F04BF80748046000E00126304658
:1039D00008B0BDE8F08100004038024040420F00CE
:1039E000700D00202400002008B500BF00200090CA
:1039F0001148006840F480400F490860084600689C
:103A000000F48040009000BF00BF00BF0020009085
:103A1000081F006840F08050091F086008460068D1
:103A200000F08050009000BF00BF00220F21901EC8
:103A300000F014F808BD0000443802400146084672
:103A4000002809DB00F01F0301229A4043099B0074
:103A500003F1E023C3F8002100BF70472DE9F05FB8
:103A600080460D461646002704F0B8FB0746394647
:103A70002A46334601F00700C0F1070ABAF1040FE5
:103A800002D94FF0040A01E0C0F1070AD14600F163
:103A9000040ABAF1070F02D24FF0000A01E0A0F1C8
:103AA000030AD4464FF0010A0AFA09FAAAF1010AF8
:103AB0000AEA020A0AFA0CFA4FF0010B0BFA0CFBA5
:103AC000ABF1010B0BEA030B4AEA0B04214640461B
:103AD00004F08CFBBDE8F09F00BF00F00702064B2E
:103AE00019684FF6FF031940044B0B4343EA0221C8
:103AF000014B196000BF70470CED00E00000FA05B3
:103B000000BF00BF00BF00BF00BFBFF34F8F00BFAB
:103B100000BF00BF0948006800F4E060084908439E
:103B2000001D0649086000BF00BF00BFBFF34F8FF4
:103B300000BF00BF00BF00BF00BFFDE70CED00E00D
:103B40000000FA0570B504460D460CB9012070BDA1
:103B50005848006800F00700A84209D255490D7086
:103B60000846006800F00700A84201D00120EEE7F7
:103B7000207800F0020002281DD1207800F0040017
:103B8000042805D14C48006840F4E0504A490860D8
:103B9000207800F00800082805D14748006840F464
:103BA0006040454908604448006820F0F000A16882
:103BB000084341490860207800F00100A8B360681C
:103BC000012807D13C4808380068C0F34040B8B924
:103BD0000120BCE76068022802D06068032807D192
:103BE000354808380068C0F3406048B90120AEE7A6
:103BF000314808380068C0F3400008B90120A6E742
:103C00002D48006820F00300616808432A490860D5
:103C1000FFF760FE064609E0FFF75CFE801B41F2FD
:103C20008831884202D9032091E707E022480068E2
:103C300000F00C006168B0EB810FEDD11D48006809
:103C400000F00700A84209D91A490D70084600681B
:103C500000F00700A84201D0012078E7207800F0AA
:103C60000400042807D11448006820F4E050E168FB
:103C7000084311490860207800F00800082808D19E
:103C80000D48006820F46040216940EAC1000A49FB
:103C9000086000F061F808490968C1F30311074A98
:103CA000515CC8400649086006480068FFF742FEBC
:103CB00000204CE7003C02400838024094F600081F
:103CC0002C000020240000200F2202600D4A126800
:103CD00002F0030242600B4A126802F0F0028260B6
:103CE000084A126802F4E052C260064A126802F4FE
:103CF0006042D2080261044A126802F007020A60B8
:103D00007047000008380240003C0240014800684B
:103D1000704700002C00002000B5FFF7F7FF0449B2
:103D20000968C1F38221034A515CC84000BD00000C
:103D300008380240A4F6000800B5FFF7E7FF044981
:103D40000968C1F34231034A515CC84000BD00001C
:103D500008380240A4F600082DE9F04700240025A9
:103D60000026A1462548006800F00C0020B1042878
:103D700005D008283AD105E0DFF8849039E0DFF873
:103D8000849036E01D48001F006800F03F041B4887
:103D9000001F006800F4800078B11A481749091F15
:103DA0000968C1F38811A0FB017001462246002377
:103DB0003846FCF765FA05460EE011480F49091F21
:103DC0000968C1F38811A0FB017001462246002357
:103DD0003846FCF755FA05460848001F0068C0F34E
:103DE0000140401C4600B5FBF6F902E0DFF81090F8
:103DF00000BF00BF4846BDE8F08700000838024019
:103E00000024F400001BB700F8B504460CB90120EB
:103E1000F8BD207800F00100002874D0F94800684F
:103E200000F00C0004280DD0F648006800F00C00EB
:103E3000082813D1F348001F006800F48000B0F593
:103E4000800F0BD1EF4808380068C0F340400028CD
:103E500059D06068002856D10120D9E700BF6068BA
:103E6000B0F5803F08D1E7480838006840F480305A
:103E7000E449083908601EE06068B0F5A02F0DD154
:103E8000E0480838006840F48020DE4908390860BE
:103E90000846006840F4803008600CE0D9480838D3
:103EA000006820F48030D749083908600846006867
:103EB00020F48020086000BF606890B1FFF70AFD21
:103EC000054606E0FFF706FD401B642801D90320E4
:103ED0009EE7CC4808380068C0F340400028F1D085
:103EE00011E0FFF7F7FC054606E0FFF7F3FC401B87
:103EF000642801D903208BE7C24808380068C0F362
:103F000040400028F1D1207800F0020002285FD163
:103F1000BC48006800F00C0058B1BA48006800F0D6
:103F20000C0008281CD1B748001F006800F480006E
:103F3000B0B9B44808380068C0F3400020B1E06868
:103F4000012801D0012063E7AE480838006820F05E
:103F5000F800216940EAC100AA490839086037E041
:103F6000E06800B30120A8490860FFF7B3FC0546EC
:103F700006E0FFF7AFFC401B022801D9032047E70A
:103F8000A04808380068C0F340000028F1D09D48E0
:103F90000838006820F0F800216940EAC10099491A
:103FA0000839086014E0002097490860FFF792FC88
:103FB000054606E0FFF78EFC401B022801D90320CE
:103FC00026E7904808380068C0F340000028F1D187
:103FD000207800F0080008282CD16069A8B10120E1
:103FE0008A490860FFF776FC054606E0FFF772FC99
:103FF000401B022801D903200AE782486C30006880
:10400000C0F340000028F1D014E000207F49086090
:10401000FFF760FC054606E0FFF75CFC401B02284A
:1040200001D90320F4E677486C300068C0F3400003
:104030000028F1D1207800F00400042870D1002776
:1040400070483830006800F0805090B900BF002000
:1040500000906C483830006840F080506949383131
:1040600008600846006800F08050009000BF00BF64
:1040700001276748006800F48070B0B964480068A0
:1040800040F4807062490860FFF724FC054606E0B2
:10409000FFF720FC401B022801D90320B8E65C484A
:1040A000006800F480700028F2D000BFA0680128EA
:1040B00008D154486830006840F001005149683127
:1040C00008601DE0A06805280DD14E4868300068E2
:1040D00040F004004B49683108600846006840F031
:1040E000010008600CE047486830006820F00100DB
:1040F0004449683108600846006820F00400086000
:1041000000BFA068A8B1FFF7E5FB054609E0FFF78F
:10411000E1FB401B41F28831884202D9032077E657
:1041200026E0384868300068C0F340000028EED030
:1041300013E0FFF7CFFB054608E0FFF7CBFB401B82
:1041400041F28831884201D9032061E62D48683068
:104150000068C0F340000028EFD1012F07D12948A3
:104160003830006820F0805026493831086000BFA0
:10417000A069002845D02348006800F00C000828FA
:104180005DD0A069022845D100201F490866FFF7CD
:10419000A1FB054606E0FFF79DFB401B022801D965
:1041A000032035E6174808380068C0F3406000284F
:1041B000F1D1D4E907010843616A40EA8111012283
:1041C000A06AC2EB500041EA00412C20005D41EAA8
:1041D00000600C49091F086001200B490866FFF7C1
:1041E00079FB054606E0FFF775FB401B022801D965
:1041F00003200DE6034808380068C0F3406000283B
:10420000F1D049E00838024000004742800E4742A2
:1042100000700040002021490866FFF75BFB05465F
:1042200006E0FFF757FB401B022801D90320EFE50A
:104230001B480068C0F340600028F2D12CE0A06960
:10424000012800D1E4E51648001D0668A069012890
:1042500020D006F48001E06981421BD106F03F01C5
:10426000206A814216D147F6C0703040616AB0EBD7
:10427000811F0FD106F440310122A06AC2EB500029
:10428000B1EB004F06D106F070612C20005DB1EB60
:10429000006F01D00120BBE50020B9E500004742D6
:1042A0000038024010B504460CB9012010BD606A08
:1042B00038B96068B0F5827F00D105E00021E16186
:1042C00002E00021216161610021A16294F85100A6
:1042D00028B9002084F85000204600F047F802205A
:1042E00084F851002068006820F0400021680860D0
:1042F000A08800F48270218901F404410843A18957
:1043000001F400610843217C01F002010843217D92
:1043100001F001010843218B01F400710843217F62
:1043200001F0380108432021095D01F080010843B4
:10433000218D01F400510843216808600421A0691F
:1043400001EA104094F8241001F01001084321689C
:1043500048602068C06920F400602168C8610020BE
:104360006065012084F8510000209FE710B586B0F9
:104370000446142101A8FBF7CDFF29492068884293
:104380004CD100BF002000902648006840F48050C7
:10439000244908600846006800F48050009000BF7F
:1043A00000BF00BF002000901E481438006840F095
:1043B00002001C49143908600846006800F0020039
:1043C000009000BF00BF00BF0020009008460068BA
:1043D00040F0010008600846006800F0010000900D
:1043E00000BF00BF1820019002200290002003901F
:1043F000032004900520059001A90B48FFF76AF9F6
:10440000802001900220029000200390032004905D
:104410000520059001A90548FFF75CF906B010BD1D
:1044200000300140443802400004024000000240D5
:104430002DE9FF5F0446884691461D460E9E0120E9
:1044400002900020019000BF94F85000012803D191
:10445000022004B0BDE8F09F012084F8500000BFA6
:10446000FFF738FA074694F851B060680390AA46FF
:10447000BBF1010F0BD00398B0F5827F04D1A06887
:1044800010B9BBF1040F02D002200190DBE0B8F1BB
:10449000000F03D0B9F1000F00D015B90120019031
:1044A000D1E094F85100042802D0052084F851008E
:1044B00000206065C4F83890E587A587C4F830808F
:1044C000E586A586206460642068006800F04000EE
:1044D000402805D02068006840F04000216808604E
:1044E000E068B0F5006F4AD1606810B1BAF1010F11
:1044F00009D1206B00882168C860206B801C206374
:10450000E08E401EE08633E02068806800F0020004
:10451000022810D1E08E70B1029801280BD1206BD7
:1045200000882168C860206B801C2063E08E401EDC
:10453000E086002002902068806800F0010068B1E9
:10454000E08F58B12068C068A16B0880A06B801C08
:10455000A063E08F401EE08701200290FFF7BAF9C8
:10456000C01BB04204D3701C10B1032001906AE05C
:10457000E08E0028C8D1E08F0028C5D14AE06068ED
:1045800010B1BAF1010F09D1206B007821680873CE
:10459000206B401C2063E08E401EE08634E02068E3
:1045A000806800F00200022810D1E08E70B10298FD
:1045B00001280BD1206B007821680873206B401C08
:1045C0002063E08E401EE086002002902068806814
:1045D00000F0010068B1E08F58B12068C068A16B9D
:1045E0000870A06B401CA063E08F401EE087012094
:1045F0000290FFF76FF9C01BB04201D3701C00B9E5
:1046000016B9032001901EE0E08E0028C7D1E08F8C
:104610000028C4D13A463146204602F007FB20B1BB
:1046200001200190202060650DE0A06850B900BF16
:10463000002000902068C06800902068806800908A
:1046400000BF00BF00BF012084F8510000BF002060
:1046500084F8500000BF0198FBE67047704710B522
:104660000346002200BF93F83C00012801D102203C
:1046700010BD012083F83C0000BF22F0FF00CC6891
:1046800040EA040222F440708C6840EA040222F4FA
:1046900080604C6840EA040222F400600C6840EA42
:1046A000040222F480500C6940EA040222F4005013
:1046B0004C6940EA040222F48040CC6940EA0402DA
:1046C0001868426400BF002083F83C0000BF00BFB0
:1046D000CEE7000030B502460B4600BF92F83C0022
:1046E000012801D1022030BD012082F83C0000BF2A
:1046F000022082F83D00106844681068816824F048
:1047000070041868044310684460184D1068A8428B
:104710001BD01068B0F1804F17D0154D1068A8421B
:1047200013D0144D1068A8420FD0134D1068A84242
:104730000BD0124D1068A84207D0114D1068A84246
:1047400003D0104D1068A84205D121F080015868AF
:10475000014310688160012082F83D0000BF002005
:1047600082F83C0000BF00BFBDE700000000014030
:104770000004004000080040000C0040000401401C
:10478000004001400018004010B504460CB901205B
:1047900010BD94F83D0028B9002084F83C00204664
:1047A00000F026F8022084F83D00211D206802F068
:1047B000C5FC012084F8460000BF84F83E000121BA
:1047C0003F200155402001554120015500BF00BF49
:1047D000012084F842004320015544200155452022
:1047E000015500BF012084F83D000020D0E7000003
:1047F00038B5044632492068884218D100BF0020ED
:1048000000903048006840F001002E4908600846DA
:10481000006800F00100009000BF00BF00220521E9
:104820001920FFF71BF91920FFF708F947E026497F
:104830002068884211D100BF002000902148001F4D
:10484000006840F002001F49091F08600846006820
:1048500000F00200009000BF31E01C49206888424F
:1048600011D100BF002000901648001F006840F0E2
:1048700004001449091F08600846006800F004009D
:10488000009000BF1BE012492068884217D100BF8A
:10489000002000900B48006840F40030094908608F
:1048A0000846006800F40030009000BF00BF0022FE
:1048B00005211920FFF7D2F81920FFF7BFF838BDFE
:1048C000000001404438024000040040000800405D
:1048D00000440140014691F83D00012801D001202B
:1048E0007047022081F83D000868C06840F0010070
:1048F0000B68D8601A4B086898421BD00868B0F162
:10490000804F17D0174B0868984213D0164B086891
:1049100098420FD0154B086898420BD0144B08688A
:10492000984207D0134B0868984203D0124B08688E
:1049300098420CD10868806800F00702062A0CD063
:104940000868006840F001000B68186005E008681E
:10495000006840F001000B6818600020C0E700000C
:10496000000001400004004000080040000C00402E
:104970000004014000400140001800402DE9F041D2
:1049800004460D46002700BF94F83C00012802D1E0
:104990000220BDE8F081012084F83C0000BF022025
:1049A00084F83D002068866826F0770626F47F4666
:1049B000206886602868502833D00CDC202850D02E
:1049C00004DC00284BD0102851D149E0302849D0D0
:1049D00040284CD139E060282DD0702807D0B0F5A0
:1049E000805F03D0B0F5005F41D10DE041E0D5E933
:1049F00002136A68206802F01EFC2068866846F090
:104A000077062068866034E0D5E902136A6820687A
:104A100002F011FC2068806840F4804021688860C2
:104A200027E0EA686968206802F0F6FC50212068F7
:104A300002F00CFC1DE0EA686968206802F0FFFCE7
:104A40006021206802F002FC13E0EA6869682068CF
:104A500002F0E2FC4021206802F0F8FB09E000BF10
:104A600000BF00BF2968206802F0F0FB01E00127C9
:104A700000BF00BF012084F83D0000BF002084F883
:104A80003C0000BF384684E7704710B504462068F4
:104A90000069C0F34000D8B12068C068C0F340008E
:104AA000B0B16FF002002168086101202077206812
:104AB000806900F0030018B12046FFF7E5FF05E02C
:104AC000204600F051F9204600F005FA002020773A
:104AD00020680069C0F38000D8B12068C068C0F3C6
:104AE0008000B0B16FF004002168086102202077D7
:104AF0002068806900F4407018B12046FFF7C4FFB9
:104B000005E0204600F030F9204600F0E4F90020EE
:104B1000207720680069C0F3C000D8B12068C06861
:104B2000C0F3C000B0B16FF0080021680861042034
:104B300020772068C06900F0030018B12046FFF715
:104B4000A3FF05E0204600F00FF9204600F0C3F96E
:104B50000020207720680069C0F30010D8B12068D9
:104B6000C068C0F30010B0B16FF010002168086198
:104B7000082020772068C06900F4407018B12046F2
:104B8000FFF782FF05E0204600F0EEF8204600F037
:104B9000A2F9002020772068006900F0010058B1D8
:104BA0002068C06800F0010030B16FF0010021689A
:104BB0000861204600F016FA20680069C0F3C010B2
:104BC00058B12068C068C0F3C01030B16FF08000E9
:104BD000216808612046FFF740FD20680069C0F3A6
:104BE000801058B12068C068C0F3801030B16FF0F9
:104BF000400021680861204600F0FDF92068006946
:104C0000C0F3401058B12068C068C0F3401030B104
:104C10006FF02000216808612046FFF71FFD10BDDE
:104C200010B586B00446142101A8FBF773FB454973
:104C3000206888421DD100BF0020009042480068D3
:104C400040F01000404908600846006800F010007D
:104C5000009000BF00BF4815019002200290002084
:104C6000039004900120059001A93848FEF732FD19
:104C700065E03749206888421DD100BF00200090C0
:104C80003148006840F004002F4908600846006879
:104C900000F00400009000BF00BF881501900220C2
:104CA00002900020039004900220059001A9294859
:104CB000FEF710FD43E02849206888421ED100BF5E
:104CC000002000902048006840F008001E4908605D
:104CD0000846006800F00800009000BF00BF4FF4D5
:104CE0008040019002200290002003900490022056
:104CF000059001A91948FEF7EDFC20E0184920684D
:104D000088421CD100BF002000900F48006840F08E
:104D100020000D4908600846006800F0200000905F
:104D200000BF00BF402001900220029000200390AD
:104D300004900320059001A90A48FEF7CBFC06B0B9
:104D400010BD000000000140303802400010024059
:104D5000000400400008024000080040000C02402F
:104D6000004401400014024070472DE9F041044620
:104D70000D461646002700BF94F83C00012802D1DA
:104D80000220BDE8F081012084F83C0000BF36B16C
:104D9000042E1BD0082E31D00C2E5ED145E02946C2
:104DA000206802F05DFA2068806940F00800216800
:104DB00088612068806920F004002168886120688B
:104DC0008069296908432168886148E0294620688C
:104DD00002F07EFA2068806940F4006021688861F2
:104DE0002068806920F4806021688861206880697B
:104DF000296940EA01202168886130E0294620685D
:104E000002F0A4FA2068C06940F008002168C86177
:104E10002068C06920F004002168C8612068C0696A
:104E2000296908432168C86119E02946206802F011
:104E3000C9FA2068C06940F400602168C861206830
:104E4000C06920F480602168C8612068C069296950
:104E500040EA01202168C86101E0012700BF00BFCE
:104E600000BF002084F83C0000BF384689E710B539
:104E700004460CB9012010BD94F83D0028B900206B
:104E800084F83C00204600F025F8022084F83D001C
:104E9000211D206802F052F9012084F8460000BF6D
:104EA00084F83E0001213F2001554020015541205A
:104EB000015500BF00BF012084F842004320015586
:104EC000442001554520015500BF012084F83D00D4
:104ED0000020D0E77047704770B504460D4615B9FD
:104EE00094F83E000BE0042D02D13F20005D06E067
:104EF000082D02D14020005D01E04120005D012825
:104F000001D0012070BD1DB9022084F83E000EE0E2
:104F1000042D03D102213F20015508E0082D03D1C3
:104F200002214020015502E00221412001550122C9
:104F30002946206802F06EF923492068884203D090
:104F400022492068884201D1012000E0002028B1D8
:104F50002068406C40F40040216848641A49206889
:104F600088421BD02068B0F1804F17D018492068C4
:104F7000884213D01749206888420FD0164920680C
:104F800088420BD011492068884207D01349206815
:104F9000884203D01249206888420CD1206880687A
:104FA00000F00706062E0CD02068006840F00100D3
:104FB0002168086005E02068006840F00100216871
:104FC000086000209EE7000000000140000401404E
:104FD0000004004000080040000C00400040014078
:104FE0000018004010B504462068B0F1804F01D190
:104FF000FEF776FC10BD7047704710B501460022E1
:1050000000BF91F83C00012801D1022010BD012011
:1050100081F83C0000BF08684069C0F3C01291F8F5
:105020003D0021280FD172B100BF00BF0B681433BF
:1050300053E8003F23F080000B68143343E800047A
:10504000002CF3D100BF08684069C0F3801291F8CA
:105050003E0022282DD162B300BF00BF0B680C3385
:1050600053E8003F23F480700B680C3343E80004DE
:10507000002CF3D100BF00BF00BF0B68143353E80E
:10508000003F23F001000B68143343E80004002CB8
:10509000F3D100BF00BF00BF0B68143353E8003FDB
:1050A00023F040000B68143343E80004002CF3D1D4
:1050B00000BF00BF002081F83C0000BF00BFA5E793
:1050C00008B5014600BF91F83C00012801D102203B
:1050D00008BD012081F83C0000BF91F83D00212867
:1050E0000ED100BF00BF0A68143252E8002F42F010
:1050F00080000A68143242E80003002BF3D100BF9D
:1051000091F83E00222839D100BF002000900868A5
:105110000068009008684068009000BF00BF086900
:1051200070B100BF00BF0A680C3252E8002F42F491
:1051300080700A680C3242E80003002BF3D100BFF4
:1051400000BF00BF0A68143252E8002F42F001008D
:105150000A68143242E80003002BF3D100BF00BFFD
:1051600000BF0A68143252E8002F42F040000A687B
:10517000143242E80003002BF3D100BF00BF00202F
:1051800081F83C0000BF00BFA2E7704770B504463D
:105190002068006800F0100010287BD120680668A5
:1051A00020684668761CA06B00685349884201D18C
:1051B00020205CE0A06B00685049884201D120208B
:1051C00055E0A06B00684C496031884201D1202035
:1051D0004DE0A06B006849496031884201D1202030
:1051E00045E0A06B006844491831884201D1C014E1
:1051F0003DE0A06B006841491831884201D1C014DC
:1052000035E0A06B00683C497831884201D1C01478
:105210002DE0A06B006839497831884201D1C01473
:1052200025E0A06B006834493031884202D14FF448
:1052300000101CE0A06B006830493031884202D178
:105240004FF4001013E0A06B00682B4990318842A6
:1052500002D14FF400100AE0A06B0068274990319A
:10526000884202D14FF4001001E04FF00060054683
:10527000A06B0068006820F00100A16B096808605D
:10528000A06B00681D494831884204D91B48001FA3
:10529000056017E022E0A06B00681749A83188423A
:1052A00003D91648083805600CE0A06B0068124965
:1052B0004831884203D910481038C56002E00E48D2
:1052C00010388560A08DA16B09684860A06B0068EC
:1052D000006840F00100A16B09680860084884423A
:1052E00004D10848A16AFCF70FFF04E00648844295
:1052F00001D104F0F5FD70BD106002401064024061
:10530000A80A0020A6510020EC0A00202DE9F84F41
:105310000446206805682068C668206847694FF021
:105320000009CA4605F00F09B9F1000F0AD105F0CE
:10533000200038B106F0200020B1204602F022FA09
:10534000BDE8F88FB9F1000F7CD007F0010018B963
:1053500006F49070002875D005F0010030B106F415
:10536000807018B1206C40F00100206405F004004A
:1053700030B107F0010018B1206C40F00200206449
:1053800005F0020030B107F0010018B1206C40F0C8
:105390000400206405F0080048B106F0200010B9B0
:1053A00007F0010018B1206C40F008002064206C68
:1053B000002846D005F0200028B106F0200010B1EA
:1053C000204602F0DFF920684069C0F3801A206CA3
:1053D00000F0080010B9BAF1000F2DD0204602F0FD
:1053E00026F92068406900F04000402820D100BF25
:1053F00000BF2168143151E8001F21F040002168EE
:10540000143141E80002002AF3D100BFA06B50B173
:105410007548A16B0865A06BFDF721FF88B1A06BF3
:10542000016D88470DE02046FFF7AFFE09E009E077
:105430002046FFF7AAFE04E02046FFF7A6FE002064
:1054400020647DE7206B012876D105F0100000284C
:1054500072D006F010000028FAD000BF00200090A3
:1054600020680068009020684068009000BF00BF7E
:105470002068406900F0400040285ED1A06B0068C1
:1054800040681FFA80F8B8F1000F54D0A08D404555
:1054900051DDA4F82E80A06BC069B0F5807F43D0A9
:1054A00000BF00BF21680C3151E8001F21F480705B
:1054B00021680C3141E80002002AF3D100BF00BF8F
:1054C00000BF2168143151E8001F21F0010021685C
:1054D000143141E80002002AF3D100BF00BF00BF31
:1054E0002168143151E8001F21F040002168143177
:1054F00041E80002002AF3D100BF202084F83E00DA
:105500000020206300BF00BF21680C3151E8001F5C
:1055100021F0100021680C3141E80002002AF3D18B
:1055200000BFA06BFDF745FEA08DE28D801A81B211
:105530002046FFF761FD03E740E0A08DE18D401AB2
:105540001FFA80F8E08DC0B3B8F1000F35D000BF6E
:1055500000BF21680C3151E8001F21F490702168D0
:105560000C3141E80002002AF3D100BF00BF00BFA8
:105570002168143151E8001F21F001002168143125
:1055800041E80002002AF3D100BF202084F83E0049
:105590000020206300BF00BF21680C3151E8001FCC
:1055A00021F0100021680C3141E80002002AF3D1FB
:1055B00000BF41462046FFF71FFDC1E605F0800011
:1055C00030B106F0800018B1204602F0D5FAB7E6F7
:1055D00005F0400030B106F0400018B1204602F05E
:1055E0005CF8ADE600BFABE69574000810B5044664
:1055F0000CB9012010BDA06900B100E000BF94F813
:105600003D0028B9002084F83C00204600F028F82E
:10561000242084F83D002068C06820F400502168F0
:10562000C860204602F02AF92068006920F4904002
:10563000216808612068406920F02A0021684861DB
:105640002068C06840F400502168C86000202064D1
:10565000202084F83D0084F83E000020CAE70000C6
:1056600010B586B00446142101A8FAF753FED149BB
:10567000206888427ED100BF00200090CE4800689C
:1056800040F01000CC4908600846006800F01000A7
:10569000009000BF00BF00BF00200090C648143833
:1056A000006840F00200C4491439086008460068E8
:1056B00000F00200009000BF00BF00BF002000907B
:1056C0000846006840F0010008600846006800F0E5
:1056D0000100009000BF00BF8020019002200290D6
:1056E00000200390032004900720059001A9B348EF
:1056F000FDF7F0FF4FF400700190022002900020AF
:105700000390032004900720059001A9AC48FDF701
:10571000E1FFAC48AC4908604FF0006048600021F0
:10572000A9488160C1604FF480610161002141613D
:1057300081614FF48071C161002101624162FDF716
:10574000C3FE08B1FCF704FE00BF9F48A06384635A
:1057500000BF9C4878309D4908604FF00060486069
:1057600040219A4881600021C1604FF4806101614D
:10577000002100E01AE0416181614FF48071C16154
:10578000002101624162FDF79FFE08B1FCF7E0FDD8
:1057900000BF8E486063846300BF0022052125207E
:1057A000FEF75CF92520FEF749F900E188492068F9
:1057B00088427CD100BF002000907F48001F006815
:1057C00040F480207C49091F08600846006800F406
:1057D0008020009000BF00BF00BF002000907648EE
:1057E0001438006840F00400734914390860084612
:1057F000006800F00400009000BF00BF4FF440605C
:1058000001900220029000200390032004900720C2
:10581000059001A96F48FDF75DFF6F486F4908606B
:105820004FF00060486000216C488160C1604FF417
:10583000806101610021416181614FF48071C1612A
:105840004FF44031016200214162FDF73DFE08B195
:10585000FCF77EFD00BF6148A063846300BF5E4823
:1058600030305F4908604FF00060486040215C487C
:1058700081600021C1604FF48061016100214161BC
:1058800081614FF48071C1614FF4403101620021A8
:105890004162FDF719FE08B1FCF75AFD00BF504800
:1058A0006063846300BF00220521272000E005E03B
:1058B000FEF7D4F82720FEF7C1F878E049492068C0
:1058C000884274D100BF002000903B48006840F03F
:1058D0002000394908600846006800F02000009068
:1058E00000BF00BF00BF002000903348143800689C
:1058F00040F040003049143908600846006800F064
:105900004000009000BF00BF4FF48440019002208F
:10591000029000200390032004900820059001A924
:105920003148FDF7D7FE2748183830490860800510
:10593000486000212D488160C1604FF480610161A1
:10594000002141618161C16101624162FDF7BCFDDD
:1059500008B1FCF7FDFC00BF2448A063846300BFCE
:1059600018486030224908604FF0206048604021AC
:105970001F4881600021C1604FF4806101610021F6
:1059800041618161C16101624162FDF79DFD08B124
:10599000FCF7DEFC00BF16486063846300BF002292
:1059A00005214720FEF75AF84720FEF747F806B0D2
:1059B00010BD0000001001404438024000040240C5
:1059C0000000024040640240300B0020900B002099
:1059D000004800400008024028600240F00B002010
:1059E000500C00200014014000180240B00C0020B0
:1059F000100D002070B504460D46164694F83E0082
:105A0000202816D105B10EB9012070BD00BF94F851
:105A10003C00012801D10220F7E7012084F83C0076
:105A200000BF0020206332462946204602F03CF8A1
:105A3000EBE70220E9E770B504460D4616462068FC
:105A4000C06840F010002168C860324629462046F0
:105A500001F046FE70BD000038B5044626492068B6
:105A600088423BD100202DE000F11102D1B2122971
:105A700002DBA1F11202D1B2204A125CA52A1FD189
:105A80001E4A525C0D2A1BD11D4A1070002215E0DF
:105A90001B4B1B78122B04DB194B1B78123B184D48
:105AA0002B70164B164D2D785D5D12339D54144BA3
:105AB0001B785B1C124D2B70531CDAB2122AE7DBE9
:105AC000411CC8B21228CFDB0E488069401C0D492A
:105AD000886100200C49888101208873009400238C
